S00F00005072654C6162362E73726563A9
S11300000C9434000C9451000C9451000C94510045
S11300100C9451000C9451000C9451000C94510018
S11300200C9451000C9451000C9451000C94510008
S11300300C9451000C9451000C9451000C945100F8
S11300400C9451000C9451000C9429010C9451000F
S11300500C9451000C9451000C9451000C945100D8
S11300600C9451000C94510011241FBECFEFD8E022
S1130070DEBFCDBF11E0A0E0B1E0E8EBF3E002C0E9
S113008005900D92A03DB107D9F721E0A0EDB1E0B4
S113009001C01D92AB3DB207E1F70E94BA000C9477
S11300A0DA010C94000080E480937C0087E880935C
S11300B07A0008958770ECE7F0E09081907F892BB7
S11300C08083EAE7F0E080818064808380917A0015
S11300D086FDFCCF809178009091790008958AB1D3
S11300E08E7F8AB98AB182608AB91092C00088E989
S11300F08093C10086E08093C20087E690E09093ED
S1130100C5008093C40008959091C00095FFFCCF72
S11301108093C60008950F931F93CF938C01C0E082
S113012003C00E948400CF5FF801EC0FF11D8081B1
S11301308111F7CFCF911F910F91089580E091E045
S11301400E948B0081E291E00E948B0080E391E0A9
S11301500E948B0084E491E00E948B008DE291E088
S11301600E948B008DE291E00E948B0085B18F7D0F
S113017085B90895F89484B1806284B985B18F7D7E
S113018085B98AB18C6F8AB984B1836084B98BB123
S113019083708BB985B18C7F85B90E946F000E94F2
S11301A0530078940E949E00FFCF1F93CF93DF9358
S11301B000D000D0CDB7DEB781111DC080E30E940E
S11301C084002CC0E1E0F0E0EC0FFD1FE10FF11D15
S11301D09DEC899F912D1124969596959695392F8E
S11301E0330F232F220F220F230F821B805D808366
S11301F0892F1F5F01C010E08111E4CF11500CC0A2
S1130200E1E0F0E0EC0FFD1FE10FF11D17FDFA95A1
S113021080810E9484001150112394F70F900F9055
S11302200F900F90DF91CF911F9108959BB1282FCC
S113023030E0220F331F220F331F9370292B2BB969
S113024095B19C7F8295869586958370892B85B917
S113025008951F920F920FB60F9211242F933F937C
S11302604F935F936F937F938F939F93AF93BF93BA
S1130270CF93EF93FF93C091C6008C2F0E9484000C
S11302808DE291E00E948B008091D001811135C0F4
S1130290C133F9F485B1806285B985E691E00E94A5
S11302A08B0082E00E945A0082E00E945A004AE0D9
S11302B061ED71E00E94A50182E891E00E948B004B
S11302C081ED91E00E948B008DE291E00E948B0011
S11302D011C0C23359F485B1806285B98CE891E0CC
S11302E00E948B0082E08093D0011DC085EB91E0D9
S11302F00E948B000E949E0016C08091D001823023
S113030091F487EC91E00E948B008C2F0E94D50021
S11303108DE291E00E948B008C2F0E9416011092B6
S1130320D0010E949E00FF91EF91CF91BF91AF91B8
S11303309F918F917F916F915F914F913F912F91F9
S11303400F900FBE0F901F901895BB274A3031F4C1
S1130350992322F4BDE2909581959F4F0C94B101AD
S1130360BB27FB015527AA27880F991FAA1FA4178B
S113037010F0A41B83955051B9F7A05DAA3308F07F
S1130380A95DA193009779F7B111B1931192CB01B3
S11303900C94CA01DC01FC01672F71917723E1F70A
S11303A0329704C07C916D9370836291AE17BF073E
S10B03B0C8F30895F894FFCF8F
S11303B83D3D3D3D3D3D3D3D3D3D3D204D656E75DD
S11303C8203D3D3D3D3D3D3D3D3D3D3D3D3D0D0AD1
S11303D800313A204C65657220706F74200D0A0054
S11303E8323A2056616C6F7220656E20415343493E
S11303F8490D0A003D3D3D3D3D3D3D3D3D3D3D3DB5
S11304083D3D3D3D3D3D3D3D3D3D3D3D3D3D3D3D10
S11304183D3D0D0A004C6579656E646F20706F74FC
S1130428656E63696F6D6574726F2E2E2E78640D18
S11304380A00202D3E204144433A2000496E677249
S113044865736120756E20636172616374657220DF
S11304587061726120766572207375204153434937
S1130468493A0D0A004F7063696F6E20696E7661B0
S11304786C6964610D0A0041534349493A200000FC
S9030000FC
