S00F00005072656C6162352E737265638A
S11300000C9434000C9446000C9446000C94460066
S11300100C9446000C9446000C9446000C94460044
S11300200C9446000C9446000C9446000C94460034
S11300300C9446000C9446000C9446000C94460024
S11300400C9498000C9446000C9446000C944600C2
S11300500C9446000C9446000C9446000C94460004
S11300600C9446000C94460011241FBECFEFD8E038
S1130070DEBFCDBF21E0A0E0B1E001C01D92A230FF
S1130080B207E1F70E94BB000C9432010C9400000B
S113009080E480937C0087E880937A0008958770D9
S11300A0ECE7F0E09081907F892B8083EAE7F0E031
S11300B080818064808380917A0086FDFCCF80916A
S11300C0780090917900089584B1866084B982EAB9
S11300D0809380008AE1809381008FE39CE9909370
S11300E087008093860088EB9BE09093890080933F
S11300F0880090938B0080938A00089590938900E0
S113010080938800089590938B0080938A000895CB
S113011084B1806184B914BC82E085BDEEE6F0E070
S1130120808181608083789408958093000108958C
S11301301F920F920FB60F9211248F939F93809169
S113014001018F5F8093010180910101811103C03E
S113015085B1806185B99091010180910001981366
S113016003C085B18F7E85B99F918F910F900FBE8B
S11301700F901F9018950E9464000E9488000E94AE
S1130180480087E00E944F008C0183E00E944F00EA
S1130190EC0182E00E944F005C019801A8EBBBE0F7
S11301A00E9423010F2ECC24CA94F3E0DF2EE12C0D
S11301B0F12CF02DA70196010E940101890104523E
S11301C01A4F9E01A8EBBBE00E942301A7019601F0
S11301D00E940101E901C452DA4F9501AFEFB0E08A
S11301E00E942301A70196010E940101F22EC80179
S11301F00E947E00CE010E9483008F2D0E949500F4
S1130200C0CFA1E21A2EAA1BBB1BFD010DC0AA1F61
S1130210BB1FEE1FFF1FA217B307E407F50720F06B
S1130220A21BB30BE40BF50B661F771F881F991FE6
S11302301A9469F760957095809590959B01AC012F
S1130240BD01CF010895A29FB001B39FC001A39F38
S1130250700D811D1124911DB29F700D811D1124FB
S10B0260911D0895F894FFCFED
S9030000FC
