:100000000C9434000C943E000C943E000C943E0082
:100010000C943E000C943E000C943E000C943E0068
:100020000C943E000C943E000C943E000C943E0058
:100030000C943E000C943E000C943E000C943E0048
:100040000C943E000C943E000C943E000C943E0038
:100050000C943E000C943E000C943E000C943E0028
:100060000C943E000C943E0011241FBECFEFD8E04C
:10007000DEBFCDBF0E9477000C94F8000C94000006
:1000800080E480937C0087E880937A0008958770ED
:10009000ECE7F0E09081907F892B8083EAE7F0E045
:1000A00080818064808380917A0086FDFCCF80917E
:1000B000780090917900089584B1826084B982E8D3
:1000C000809380008AE1809381008FE39CE9909384
:1000D00087008093860088EB9BE090938900809353
:1000E00088000895909389008093880008950E9465
:1000F0005C000E94AC000E94400087E00E94470024
:100100008C0183E00E944700EC019801A8EBBBE062
:100110000E94E9000F2ECC24CA94F3E0DF2EE12CDC
:10012000F12CF02DA70196010E94C700890104520D
:100130001A4F9E01A8EBBBE00E94E900A7019601BF
:100140000E94C700E901C452DA4FC8010E94720040
:10015000CE010E94C200D1CF84B1846084B982E80C
:10016000809380008AE1809381008FE39CE99093E3
:1001700087008093860088EB9BE090938B008093B0
:100180008A00089590938B0080938A000895A1E2DD
:100190001A2EAA1BBB1BFD010DC0AA1FBB1FEE1F01
:1001A000FF1FA217B307E407F50720F0A21BB30B4C
:1001B000E40BF50B661F771F881F991F1A9469F7C8
:1001C00060957095809590959B01AC01BD01CF0124
:1001D0000895A29FB001B39FC001A39F700D811D20
:1001E0001124911DB29F700D811D1124911D089540
:0401F000F894FFCFB1
:00000001FF
