S00F00005072656C6162352E737265638A
S11300000C9434000C943E000C943E000C943E007E
S11300100C943E000C943E000C943E000C943E0064
S11300200C943E000C943E000C943E000C943E0054
S11300300C943E000C943E000C943E000C943E0044
S11300400C943E000C943E000C943E000C943E0034
S11300500C943E000C943E000C943E000C943E0024
S11300600C943E000C943E0011241FBECFEFD8E048
S1130070DEBFCDBF0E9477000C94A6000C94000054
S113008080E480937C0087E880937A0008958770E9
S1130090ECE7F0E09081907F892B8083EAE7F0E041
S11300A080818064808380917A0086FDFCCF80917A
S11300B0780090917900089584B1826084B982E8CF
S11300C0809380008AE1809381008FE39CE9909380
S11300D087008093860088EB9BE09093890080934F
S11300E088000895909389008093880008950E9461
S11300F05C000E94400087E00E94470024EC39E045
S1130100AC01429FC001439F900D529F900D11245A
S11301106FEF73E00E949200CB0184529A4F0E94C9
S11301207200E9CFAA1BBB1B51E107C0AA1FBB1F6A
S1130130A617B70710F0A61BB70B881F991F5A956F
S1130140A9F780959095BC01CD010895F894FFCF4F
S9030000FC
