S00F00005072656C6162352E737265638A
S11300000C9434000C943E000C943E000C943E007E
S11300100C943E000C943E000C943E000C943E0064
S11300200C943E000C943E000C943E000C943E0054
S11300300C943E000C943E000C943E000C943E0044
S11300400C943E000C943E000C943E000C943E0034
S11300500C943E000C943E000C943E000C943E0024
S11300600C943E000C943E0011241FBECFEFD8E048
S1130070DEBFCDBF0E947B000C94E4000C94000012
S113008080E480937C0087E880937A0008958770E9
S1130090ECE7F0E09081907F892B8083EAE7F0E041
S11300A080818064808380917A0086FDFCCF80917A
S11300B0780090917900089584B1866084B982EAC9
S11300C0809380008AE1809381008FE39CE9909380
S11300D087008093860088EB9BE09093890080934F
S11300E0880090938B0080938A00089590938900F0
S11300F08093880008950E945C000E94400087E07D
S11301000E9447008C0183E00E944700EC019801A3
S1130110A8EBBBE00E94D5000F2ECC24CA94F3E0D8
S1130120DF2EE12CF12CF02DA70196010E94B300E3
S1130130890104521A4F9E01A8EBBBE00E94D5002E
S1130140A70196010E94B300E901C452DA4FC80125
S11301500E947600CE010E94AE00D1CF90938B0016
S113016080938A000895A1E21A2EAA1BBB1BFD01ED
S11301700DC0AA1FBB1FEE1FFF1FA217B307E40782
S1130180F50720F0A21BB30BE40BF50B661F771FDA
S1130190881F991F1A9469F76095709580959095BA
S11301A09B01AC01BD01CF010895A29FB001B39F93
S11301B0C001A39F700D811D1124911DB29F700D6C
S10F01C0811D1124911D0895F894FFCFB7
S9030000FC
