:100000000C9434000C943E000C943E000C943E0082
:100010000C943E000C943E000C943E000C943E0068
:100020000C943E000C943E000C943E000C943E0058
:100030000C943E000C943E000C943E000C943E0048
:100040000C943E000C943E000C943E000C943E0038
:100050000C943E000C943E000C943E000C943E0028
:100060000C943E000C943E0011241FBECFEFD8E04C
:10007000DEBFCDBF0E9440000C9479000C940000BC
:100080008FE384B987B1836087B987B1837F87B9EC
:1000900088B18C6088B920E032990EC03FEF89EFBB
:1000A00090E0315080409040E1F700C0000032996C
:1000B00003C02F5F329BFECF33990EC03FEF89EF15
:1000C00090E0315080409040E1F700C0000033994B
:1000D00003C02150339BFECF822F8F7385B988B127
:1000E0008C7F922F9295969596959370892B88B9CF
:0600F000D3CFF894FFCF0E
:00000001FF
