:100000000C9434000C943E000C943E000C943E0082
:100010000C943E000C943E000C943E000C943E0068
:100020000C943E000C943E000C943E000C943E0058
:100030000C943E000C943E000C943E000C943E0048
:100040000C943E000C943E000C943E000C943E0038
:100050000C943E000C943E000C943E000C943E0028
:100060000C943E000C943E0011241FBECFEFD8E04C
:10007000DEBFCDBF0E945C000C949A000C9400007F
:1000800080E480937C0087E880937A000895ECE711
:10009000F0E09081907F8F70892B8083EAE7F0E019
:1000A00080818064808380917A0086FDFCCF80917E
:1000B00078009091790008958FE384B987B18360C7
:1000C00087B987B1837F87B988B18C6088B90E946E
:1000D0004000C0E086E00E94470032990EC02FEF3A
:1000E00089EF90E0215080409040E1F700C000008F
:1000F000329903C0CF5F329BFECF33990EC02FEFF2
:1001000089EF90E0215080409040E1F700C000006E
:10011000339903C0C150339BFECF8C2F8F7385B9A9
:1001200088B18C7F9C2F9295969596959370892B8C
:0801300088B9D0CFF894FFCF8D
:00000001FF
