S00F00005072656C6162342E737265638B
S11300000C9434000C9446000C9446000C94460066
S11300100C9478000C9446000C9446000C94460012
S11300200C9446000C9446000C9446000C94460034
S11300300C9446000C9446000C9446000C94460024
S11300400C9446000C9446000C9446000C94460014
S11300500C9446000C9446000C9446000C94460004
S11300600C9446000C94460011241FBECFEFD8E038
S1130070DEBFCDBF21E0A0E0B1E001C01D92A230FF
S1130080B207E1F70E948E000C94CB000C940000A0
S113009014BC83E085BD089516BC86B58E34E8F3A0
S11300A00895E8E6F0E0808182608083ECE6F0E089
S11300B080818C608083089580E480937C0087E84D
S11300C080937A000895ECE7F0E09081907F8F7040
S11300D0892B8083EAE7F0E08081806480838091CB
S11300E07A0086FDFCCF8091780090917900089584
S11300F01F920F920FB60F9211248F93329903C05F
S113010081E080930101339903C081E08093000171
S11301108F910F900FBE0F901F9018958FE384B9A5
S113012087B1836087B987B1837F87B988B18C60D1
S113013088B90E9448000E9451000E945C00789493
S1130140C0E086E00E94630080910101882349F0A9
S11301500E944C00329903C0CF5F329BFECF1092B5
S1130160010180910001882349F00E944C003399D9
S113017003C0C150339BFECF109200018C2F8F73AC
S113018085B988B18C7F9C2F92959695969593709E
S10D0190892B88B9D6CFF894FFCF6D
S9030000FC
