S00F00005072656C6162342E737265638B
S11300000C9434000C9451000C9451000C94510045
S11300100C94A5000C9451000C9451000C945100C4
S11300200C9451000C9451000C9451000C94510008
S11300300C9451000C9451000C9451000C945100F8
S11300400C9451000C9451000C9451000C945100E8
S11300500C9451000C9451000C9451000C945100D8
S11300600C9451000C94510011241FBECFEFD8E022
S1130070DEBFCDBF11E0A0E0B1E0E2E1F2E002C0FA
S113008005900D92A031B107D9F721E0A0E1B1E0CC
S113009001C01D92A231B207E1F70E94BB000C948B
S11300A007010C94000014BC83E085BD089516BCC0
S11300B086B58E34E8F30895E8E6F0E08081826046
S11300C08083ECE6F0E080818C608083089580E496
S11300D080937C0087E880937A0008958770806419
S11300E080937C00EAE7F0E08081806480838091E3
S11300F07A0086FDFCCF8091780090917900089574
S113010098B19F7C98B9E82FF0E0E050FF4F8081D0
S11301108BB988B1806188B98FE19EE40197F1F7CA
S113012000C0000088B18F7C88B9E62FF0E0E05071
S1130130FF4F80818BB988B1806288B98FE19EE4DA
S11301400197F1F700C0000008951F920F920FB6B7
S11301500F9211248F93329903C081E0809311018F
S1130160339903C081E0809310018F910F900FBEEB
S11301700F901F9018958FE384B987B1836087B976
S11301808FEF8AB987B1837F87B988B18C6088B9CA
S113019087B1806387B90E9453000E945C000E946B
S11301A067007894C0E086E00E946E00969587957B
S11301B096958795682F6F7082958F700E94800046
S11301C080911101882349F00E945700329903C09D
S11301D0CF5F329BFECF10921101809110018823D2
S11301E049F00E945700339903C0C150339BFECF9E
S11301F0109210018C2F8F7385B988B18C7F9C2F3E
S11302009295969596959370892B88B9CCCFF8944E
S1050210FFCF1A
S11302123F065B4F666D7D077F6F777C395E797130
S9030000FC
