:100000000C9434000C9451000C9451000C94510049
:100010000C9451000C9451000C9451000C9451001C
:100020000C9451000C9499000C9451000C945100C4
:100030000C9451000C9451000C9451000C945100FC
:100040000C9451000C9451000C9451000C945100EC
:100050000C9451000C9480000C9451000C945100AD
:100060000C9451000C94510011241FBECFEFD8E026
:10007000DEBFCDBF11E0A0E0B1E0E6EEF2E002C0ED
:1000800005900D92A231B107D9F721E0A2E1B1E0CC
:1000900001C01D92A531B207E1F70E94EC000C945B
:1000A00071010C940000F89487B1837F87B988B1FF
:1000B0008C6088B984B18F6384B987B1836087B954
:1000C0008AB18FEF8AB987B1806787B98AB18068B2
:1000D0008AB987E680937C00EAE7F0E08FE88083C6
:1000E0008081806480831092B00082E08093B100B0
:1000F00081E08093700086E98093B200789408953F
:100100001F920F920FB60F9211248F93EF93FF93CC
:100110008091790080931301EAE7F0E080818064A8
:100120008083FF91EF918F910F900FBE0F901F90E2
:1001300018951F920F920FB60F9211245F936F9331
:100140007F938F939F93AF93BF93EF93FF9388B168
:100150008F7C88B980911201882319F0813089F051
:1001600020C09BB1E0911401EF70F0E0EE5FFE4F14
:10017000808190788F77892B8BB988B1806188B91D
:1001800010C09BB1E0911301E295EF70F0E0EE5FDB
:10019000FE4F808190788F77892B8BB988B18062F0
:1001A00088B98091120190E0019663E070E00E94AE
:1001B00049018093120186E98093B200FF91EF918B
:1001C000BF91AF919F918F917F916F915F910F90B0
:1001D0000FBE0F901F9018950E945300329917C0C0
:1001E00080910101882399F02FEF89EF90E0215051
:1001F00080409040E1F700C0000032990DC080912E
:1002000014018F5F809314011092010105C0329B8D
:1002100003C081E080930101339917C080910001F0
:10022000882399F02FEF89EF90E021508040904093
:10023000E1F700C0000033990DC080911401815096
:10024000809314011092000105C0339B03C081E02C
:100250008093000195B180911401907C8F73892B5C
:1002600085B998B1809114019C7F82958695869579
:100270008370892B88B9909113018091140189179B
:1002800020F48BB180688BB9A9CF8BB18F778BB9F4
:10029000A5CF97FB072E16F4009407D077FD09D061
:1002A0000E945D0107FC05D03EF4909581959F4F1B
:1002B0000895709561957F4F0895AA1BBB1B51E16E
:1002C00007C0AA1FBB1FA617B70710F0A61BB70BC6
:1002D000881F991F5A95A9F780959095BC01CD016B
:0602E0000895F894FFCF21
:1002E60001013F065B4F666D7D077F6F777C395E48
:0202F60079711C
:00000001FF
